:03000000020006F5
:03005F0002000399
:0300030002006296
:2000620043BC80439720439D0B43900343920443B28043DC4243D90243D84075ECFF75FC4B
:20008200FF438E805389F0758ACD758CD4D2AF7F0090012CC007120172C2B6D292900064C8
:2000A200120172D007758200C00712019DAD82AE83758201C006C00512019DAB82AC837510
:2000C2008203C004C00312019DA982AA83D003D004D005D006D0078908EAC313C50813C5EB
:2000E20008F509ED4E700F8B008C02742028F8E43AFA88038A04EB4C700F8D018E027420D8
:2001020029F9E43AFA89058A06C3EB9DEC64808EF063F08095F05009EDC39BF9EE9CFA80F3
:2001220007EBC39DF9EC9EFAC3E50899E50964808AF063F08095F0501175ECFF75FCFF755B
:20014200D800C292C2B7D2B680FEE5EC60158F060FEE24F5500DE5EC14F5ECE5FCFE14F5F6
:20016200FC7F0090000AC007120172D0070200A7AE82AF83C28D758CCD758AD4D28C8E045A
:200182008F051EBEFF011FEC4D600D308DFD758CCD758AD4C28D80E6C28C22E5824488F580
:1501A200BC0000000000E5BC30E4FB75BC0085BE8285BD8322FF
:2001B700AD82AE83AFF07C00EC2DF9E43EFA8F030C89828A838BF01202C8F599E59830E156
:2001D700FB5398FDEC2DF9E43EFA8F0389828A838BF01202C870D122858299E59830E1FB6A
:2001F7005398FD2285820D85830E85F00F7C00AA0BAB0C8A008B011ABAFF011BE84960337F
:20021700EC250DF8E4350EF9AF0F0C888289838FF01202C8F599E59830E1FB5398FDEC2546
:200237000DFDE4350EFEAF0F8D828E838FF01202C870C02210980280FB85998222AD82AE29
:2002570083AFF07C00EC2DF9E43EFA8F03C007C006C005C004C003C002C00112024BA88244
:20027700D001D002D003D004D005D006D00789828A838BF0E81202ADEC2DF9E43EFA8F039F
:160297000C89828A838BF01202C8F9B90D0122C3EC950A40B02294
:06003500E478FFF6D8FD9F
:200013007900E94400601B7A009002E8780175A000E493F2A308B8000205A0D9F4DAF275A9
:02003300A0FF2C
:1B02AD0020F71130F6138883A88220F509F6A8837583002280FEF280F5F02250
:20003B007800E84400600A790175A000E4F309D8FC7800E84400600C7900900001E4F0A3C3
:04005B00D8FCD9FAFA
:0D00060075810F1202E4E582600302000321
:1C02C80020F71430F6148883A88220F507E6A88375830022E280F7E49322E02245
:0402E40075820022FD
:00000001FF
