:03000000020006F5
:03005F0002000399
:0300030002006296
:2000620043BC80439720439D1B43911B43920443B28043DC4243D90243D84075ECFF75FC22
:20008200FF438E805389F0758ACD758CD4D2AF75080090012C120171C2B6D2929000641280
:2000A200017175820012019CAD82AE83758201C006C00512019CAB82AC83D005D006ED4E52
:2000C2006004EB4C7023758203C006C005C004C00312019CA982AA83D003D004D005D0068B
:2000E200EAC313C913C9FA8023758204C006C005C004C00312019CA882AF83D003D004D06D
:2001020005D0068801EFC313C913C9FAC3EB9DEC64808EF063F08095F05009EDC39BF8EE9A
:200122009CFF8007EBC39DF8EC9EFFC3E998EA64808FF063F08095F0501175ECFF75FCFFB5
:2001420075D800C292C2B7D2B680FEE5EC6017AF080508EF24F5500EE5EC14F5ECE5FCFF65
:2001620014F5FC75080090000A1201710200A4AE82AF83C28D758CCD758AD4D28C8E048F66
:20018200051EBEFF011FEC4D600D308DFD758CCD758AD4C28D80E6C28C22E5824488F5BC53
:1401A2000000000000E5BC30E4FB75BC0085BE8285BD8322BC
:2001B600AD82AE83AFF07C00EC2DF9E43EFA8F030C89828A838BF01202C7F599E59830E158
:2001D600FB5398FDEC2DF9E43EFA8F0389828A838BF01202C770D122858299E59830E1FB6C
:2001F6005398FD2285820C85830D85F00E7C00AA0AAB0B8A008B011ABAFF011BE849603385
:20021600EC250CF8E4350DF9AF0E0C888289838FF01202C7F599E59830E1FB5398FDEC254B
:200236000CFDE4350DFEAF0E8D828E838FF01202C770C02210980280FB85998222AD82AE2E
:2002560083AFF07C00EC2DF9E43EFA8F03C007C006C005C004C003C002C00112024AA88246
:20027600D001D002D003D004D005D006D00789828A838BF0E81202ACEC2DF9E43EFA8F03A1
:160296000C89828A838BF01202C7F9B90D0122C3EC950940B02297
:06003500E478FFF6D8FD9F
:200013007900E94400601B7A009002E7780175A000E493F2A308B8000205A0D9F4DAF275AA
:02003300A0FF2C
:1B02AC0020F71130F6138883A88220F509F6A8837583002280FEF280F5F02251
:20003B007800E84400600A790175A000E4F309D8FC7800E84400600C7900900001E4F0A3C3
:04005B00D8FCD9FAFA
:0D00060075810E1202E3E582600302000323
:1C02C70020F71430F6148883A88220F507E6A88375830022E280F7E49322E02246
:0402E30075820022FE
:00000001FF
